{
  "_format": "hh-sol-artifact-1",
  "contractName": "SodasPurchased",
  "sourceName": "contracts/SodasPurchased.sol",
  "abi": [
    {
      "inputs": [
        {
          "internalType": "address",
          "name": "",
          "type": "address"
        }
      ],
      "name": "numberOfSodasPurchased",
      "outputs": [
        {
          "internalType": "uint256",
          "name": "",
          "type": "uint256"
        }
      ],
      "stateMutability": "view",
      "type": "function"
    },
    {
      "inputs": [
        {
          "internalType": "uint256",
          "name": "_number",
          "type": "uint256"
        }
      ],
      "name": "purchaseSodas",
      "outputs": [],
      "stateMutability": "nonpayable",
      "type": "function"
    },
    {
      "inputs": [
        {
          "internalType": "address",
          "name": "_address",
          "type": "address"
        }
      ],
      "name": "returnSodasPurchased",
      "outputs": [
        {
          "internalType": "uint256",
          "name": "",
          "type": "uint256"
        }
      ],
      "stateMutability": "view",
      "type": "function"
    }
  ],
  "bytecode": "0x608060405234801561001057600080fd5b50610330806100206000396000f3fe608060405234801561001057600080fd5b50600436106100415760003560e01c80637b90ae2a14610046578063894cacdb14610076578063fe4f46e2146100a6575b600080fd5b610060600480360381019061005b91906101dd565b6100c2565b60405161006d9190610223565b60405180910390f35b610090600480360381019061008b91906101dd565b61010a565b60405161009d9190610223565b60405180910390f35b6100c060048036038101906100bb919061026a565b610122565b005b60008060008373ffffffffffffffffffffffffffffffffffffffff1673ffffffffffffffffffffffffffffffffffffffff168152602001908152602001600020549050919050565b60006020528060005260406000206000915090505481565b806000803373ffffffffffffffffffffffffffffffffffffffff1673ffffffffffffffffffffffffffffffffffffffff168152602001908152602001600020600082825461017091906102c6565b9250508190555050565b600080fd5b600073ffffffffffffffffffffffffffffffffffffffff82169050919050565b60006101aa8261017f565b9050919050565b6101ba8161019f565b81146101c557600080fd5b50565b6000813590506101d7816101b1565b92915050565b6000602082840312156101f3576101f261017a565b5b6000610201848285016101c8565b91505092915050565b6000819050919050565b61021d8161020a565b82525050565b60006020820190506102386000830184610214565b92915050565b6102478161020a565b811461025257600080fd5b50565b6000813590506102648161023e565b92915050565b6000602082840312156102805761027f61017a565b5b600061028e84828501610255565b91505092915050565b7f4e487b7100000000000000000000000000000000000000000000000000000000600052601160045260246000fd5b60006102d18261020a565b91506102dc8361020a565b92508282019050808211156102f4576102f3610297565b5b9291505056fea2646970667358221220b26ea86048027b7bc61b683af14916c585cee038b5087f71d97b39c69fe57f4a64736f6c63430008180033",
  "linkReferences": {},
  "deployedLinkReferences": {}
}